{
  "address": "0xaca81583840B1bf2dDF6CDe824ada250C1936B4D",
  "abi": [
    {
      "inputs": [
        {
          "internalType": "uint8",
          "name": "v",
          "type": "uint8"
        },
        {
          "internalType": "bytes32",
          "name": "r",
          "type": "bytes32"
        },
        {
          "internalType": "bytes32",
          "name": "s",
          "type": "bytes32"
        },
        {
          "internalType": "uint256",
          "name": "deadline",
          "type": "uint256"
        },
        {
          "internalType": "uint256",
          "name": "valueForPermit",
          "type": "uint256"
        }
      ],
      "name": "addPoolLiquidity",
      "outputs": [],
      "stateMutability": "payable",
      "type": "function"
    },
    {
      "inputs": [
        {
          "internalType": "address",
          "name": "",
          "type": "address"
        }
      ],
      "name": "balances",
      "outputs": [
        {
          "internalType": "uint256",
          "name": "",
          "type": "uint256"
        }
      ],
      "stateMutability": "view",
      "type": "function"
    },
    {
      "inputs": [
        {
          "internalType": "address",
          "name": "_stakingToken",
          "type": "address"
        },
        {
          "internalType": "address",
          "name": "_rewardsToken",
          "type": "address"
        },
        {
          "internalType": "enum LpContract.NetWork",
          "name": "_netWork",
          "type": "uint8"
        }
      ],
      "name": "initialize",
      "outputs": [],
      "stateMutability": "nonpayable",
      "type": "function"
    },
    {
      "inputs": [],
      "name": "lastUpdateTime",
      "outputs": [
        {
          "internalType": "uint256",
          "name": "",
          "type": "uint256"
        }
      ],
      "stateMutability": "view",
      "type": "function"
    },
    {
      "inputs": [],
      "name": "rewardPerTokenStored",
      "outputs": [
        {
          "internalType": "uint256",
          "name": "",
          "type": "uint256"
        }
      ],
      "stateMutability": "view",
      "type": "function"
    },
    {
      "inputs": [],
      "name": "rewardRate",
      "outputs": [
        {
          "internalType": "uint256",
          "name": "",
          "type": "uint256"
        }
      ],
      "stateMutability": "view",
      "type": "function"
    },
    {
      "inputs": [
        {
          "internalType": "address",
          "name": "",
          "type": "address"
        }
      ],
      "name": "rewards",
      "outputs": [
        {
          "internalType": "uint256",
          "name": "",
          "type": "uint256"
        }
      ],
      "stateMutability": "view",
      "type": "function"
    },
    {
      "inputs": [],
      "name": "rewardsToken",
      "outputs": [
        {
          "internalType": "contract IERC20",
          "name": "",
          "type": "address"
        }
      ],
      "stateMutability": "view",
      "type": "function"
    },
    {
      "inputs": [],
      "name": "stakingToken",
      "outputs": [
        {
          "internalType": "contract IERC20",
          "name": "",
          "type": "address"
        }
      ],
      "stateMutability": "view",
      "type": "function"
    },
    {
      "inputs": [
        {
          "internalType": "address",
          "name": "",
          "type": "address"
        }
      ],
      "name": "userRewardPerTokenPaid",
      "outputs": [
        {
          "internalType": "uint256",
          "name": "",
          "type": "uint256"
        }
      ],
      "stateMutability": "view",
      "type": "function"
    },
    {
      "inputs": [],
      "name": "withdrawPoolLiquidity",
      "outputs": [],
      "stateMutability": "nonpayable",
      "type": "function"
    }
  ],
  "transactionHash": "0x52ff707cb995d22bf707b3b1668aa2f6e92312d3ea4e6f486631091cc3600307",
  "args": [],
  "numDeployments": 1,
  "solcInputHash": "9c9b7bbdcea1d335e0bc792c903a1376",
  "bytecode": "0x608060405234801561001057600080fd5b50612998806100206000396000f3fe60806040526004361061009c5760003560e01c806389232a001161006457806389232a00146101885780638b876347146101b1578063c8f33c91146101ee578063d1af0c7d14610219578063df136d6514610244578063df2a73ee1461026f5761009c565b806306509986146100a15780630700037d146100b857806327e235e3146100f557806372f702f3146101325780637b0a47ee1461015d575b600080fd5b3480156100ad57600080fd5b506100b661028b565b005b3480156100c457600080fd5b506100df60048036038101906100da9190611c27565b610365565b6040516100ec9190611c6d565b60405180910390f35b34801561010157600080fd5b5061011c60048036038101906101179190611c27565b61037d565b6040516101299190611c6d565b60405180910390f35b34801561013e57600080fd5b50610147610395565b6040516101549190611ce7565b60405180910390f35b34801561016957600080fd5b506101726103bb565b60405161017f9190611c6d565b60405180910390f35b34801561019457600080fd5b506101af60048036038101906101aa9190611d27565b6103c1565b005b3480156101bd57600080fd5b506101d860048036038101906101d39190611c27565b610527565b6040516101e59190611c6d565b60405180910390f35b3480156101fa57600080fd5b5061020361053f565b6040516102109190611c6d565b60405180910390f35b34801561022557600080fd5b5061022e610545565b60405161023b9190611ce7565b60405180910390f35b34801561025057600080fd5b5061025961056b565b6040516102669190611c6d565b60405180910390f35b61028960048036038101906102849190611e15565b610571565b005b6000600c60003373ffffffffffffffffffffffffffffffffffffffff1673ffffffffffffffffffffffffffffffffffffffff168152602001908152602001600020541161030d576040517f08c379a000000000000000000000000000000000000000000000000000000000815260040161030490611eed565b60405180910390fd5b6000600c60003373ffffffffffffffffffffffffffffffffffffffff1673ffffffffffffffffffffffffffffffffffffffff16815260200190815260200160002054905061035a81610715565b61036261092c565b50565b600a6020528060005260406000206000915090505481565b600c6020528060005260406000206000915090505481565b600560009054906101000a900473ffffffffffffffffffffffffffffffffffffffff1681565b60065481565b60001515600d60009054906101000a900460ff16151514610417576040517f08c379a000000000000000000000000000000000000000000000000000000000815260040161040e90611f59565b60405180910390fd5b61042081610b1f565b61042a8383610d51565b6000600181111561043e5761043d611f79565b5b81600181111561045157610450611f79565b5b14156104b15773a478c2975ab1ea89e8196811f51a7b7ade33eb11600d60016101000a81548173ffffffffffffffffffffffffffffffffffffffff021916908373ffffffffffffffffffffffffffffffffffffffff160217905550610507565b731c5dee94a34d795f9eeef830b68b80e44868d316600d60016101000a81548173ffffffffffffffffffffffffffffffffffffffff021916908373ffffffffffffffffffffffffffffffffffffffff1602179055505b6001600d60006101000a81548160ff021916908315150217905550505050565b60096020528060005260406000206000915090505481565b60075481565b600460009054906101000a900473ffffffffffffffffffffffffffffffffffffffff1681565b60085481565b600034116105b4576040517f08c379a00000000000000000000000000000000000000000000000000000000081526004016105ab9061201a565b60405180910390fd5b60006105be610ddf565b600d60019054906101000a900473ffffffffffffffffffffffffffffffffffffffff1673ffffffffffffffffffffffffffffffffffffffff1663d505accf333085878b8b8b6040518863ffffffff1660e01b81526004016106259796959493929190612067565b600060405180830381600087803b15801561063f57600080fd5b505af1158015610653573d6000803e3d6000fd5b50505050600d60019054906101000a900473ffffffffffffffffffffffffffffffffffffffff1673ffffffffffffffffffffffffffffffffffffffff166370a08231336040518263ffffffff1660e01b81526004016106b291906120d6565b60206040518083038186803b1580156106ca57600080fd5b505afa1580156106de573d6000803e3d6000fd5b505050506040513d601f19601f820116820180604052508101906107029190612106565b905061070d8161127d565b505050505050565b3361071e61144a565b60088190555042600781905550610734816114ae565b600a60008373ffffffffffffffffffffffffffffffffffffffff1673ffffffffffffffffffffffffffffffffffffffff16815260200190815260200160002081905550600854600960008373ffffffffffffffffffffffffffffffffffffffff1673ffffffffffffffffffffffffffffffffffffffff1681526020019081526020016000208190555081600c60003373ffffffffffffffffffffffffffffffffffffffff1673ffffffffffffffffffffffffffffffffffffffff16815260200190815260200160002054101561080957600080fd5b81600b600082825461081b9190612162565b9250508190555081600c60003373ffffffffffffffffffffffffffffffffffffffff1673ffffffffffffffffffffffffffffffffffffffff16815260200190815260200160002060008282546108719190612162565b92505081905550600560009054906101000a900473ffffffffffffffffffffffffffffffffffffffff1673ffffffffffffffffffffffffffffffffffffffff1663a9059cbb33846040518363ffffffff1660e01b81526004016108d5929190612196565b602060405180830381600087803b1580156108ef57600080fd5b505af1158015610903573d6000803e3d6000fd5b505050506040513d601f19601f8201168201806040525081019061092791906121f7565b505050565b3361093561144a565b6008819055504260078190555061094b816114ae565b600a60008373ffffffffffffffffffffffffffffffffffffffff1673ffffffffffffffffffffffffffffffffffffffff16815260200190815260200160002081905550600854600960008373ffffffffffffffffffffffffffffffffffffffff1673ffffffffffffffffffffffffffffffffffffffff168152602001908152602001600020819055506000600a60003373ffffffffffffffffffffffffffffffffffffffff1673ffffffffffffffffffffffffffffffffffffffff1681526020019081526020016000205490506000600a60003373ffffffffffffffffffffffffffffffffffffffff1673ffffffffffffffffffffffffffffffffffffffff168152602001908152602001600020819055506000811415610a6b57600080fd5b600460009054906101000a900473ffffffffffffffffffffffffffffffffffffffff1673ffffffffffffffffffffffffffffffffffffffff1663a9059cbb33836040518363ffffffff1660e01b8152600401610ac8929190612196565b602060405180830381600087803b158015610ae257600080fd5b505af1158015610af6573d6000803e3d6000fd5b505050506040513d601f19601f82011682018060405250810190610b1a91906121f7565b505050565b60006001811115610b3357610b32611f79565b5b816001811115610b4657610b45611f79565b5b1415610bfa57736b175474e89094c44da98b954eedeac495271d0f6000806101000a81548173ffffffffffffffffffffffffffffffffffffffff021916908373ffffffffffffffffffffffffffffffffffffffff16021790555073c02aaa39b223fe8d0a0e5c4f27ead9083c756cc2600160006101000a81548173ffffffffffffffffffffffffffffffffffffffff021916908373ffffffffffffffffffffffffffffffffffffffff160217905550610ca4565b73ad6d458402f60fd3bd25163575031acdce07538d6000806101000a81548173ffffffffffffffffffffffffffffffffffffffff021916908373ffffffffffffffffffffffffffffffffffffffff16021790555073c778417e063141139fce010982780140aa0cd5ab600160006101000a81548173ffffffffffffffffffffffffffffffffffffffff021916908373ffffffffffffffffffffffffffffffffffffffff1602179055505b737a250d5630b4cf539739df2c5dacb4c659f2488d600260006101000a81548173ffffffffffffffffffffffffffffffffffffffff021916908373ffffffffffffffffffffffffffffffffffffffff160217905550735c69bee701ef814a2b6a3edd4b1652cb9cc5aa6f600360006101000a81548173ffffffffffffffffffffffffffffffffffffffff021916908373ffffffffffffffffffffffffffffffffffffffff16021790555050565b81600560006101000a81548173ffffffffffffffffffffffffffffffffffffffff021916908373ffffffffffffffffffffffffffffffffffffffff16021790555080600460006101000a81548173ffffffffffffffffffffffffffffffffffffffff021916908373ffffffffffffffffffffffffffffffffffffffff16021790555060646006819055505050565b610df0610deb346115b0565b611849565b60008060009054906101000a900473ffffffffffffffffffffffffffffffffffffffff1673ffffffffffffffffffffffffffffffffffffffff166370a08231306040518263ffffffff1660e01b8152600401610e4c91906120d6565b60206040518083038186803b158015610e6457600080fd5b505afa158015610e78573d6000803e3d6000fd5b505050506040513d601f19601f82011682018060405250810190610e9c9190612106565b90506000600a47610ead9190612162565b905060008054906101000a900473ffffffffffffffffffffffffffffffffffffffff1673ffffffffffffffffffffffffffffffffffffffff1663095ea7b3600260009054906101000a900473ffffffffffffffffffffffffffffffffffffffff16846040518363ffffffff1660e01b8152600401610f2c929190612196565b602060405180830381600087803b158015610f4657600080fd5b505af1158015610f5a573d6000803e3d6000fd5b505050506040513d601f19601f82011682018060405250810190610f7e91906121f7565b50600260009054906101000a900473ffffffffffffffffffffffffffffffffffffffff1673ffffffffffffffffffffffffffffffffffffffff1663f305d7198260008054906101000a900473ffffffffffffffffffffffffffffffffffffffff168560008033426040518863ffffffff1660e01b81526004016110069695949392919061225f565b6060604051808303818588803b15801561101f57600080fd5b505af1158015611033573d6000803e3d6000fd5b50505050506040513d601f19601f8201168201806040525081019061105891906122c0565b50505060008060009054906101000a900473ffffffffffffffffffffffffffffffffffffffff1673ffffffffffffffffffffffffffffffffffffffff166370a08231306040518263ffffffff1660e01b81526004016110b791906120d6565b60206040518083038186803b1580156110cf57600080fd5b505afa1580156110e3573d6000803e3d6000fd5b505050506040513d601f19601f820116820180604052508101906111079190612106565b905060004711156111c05760003373ffffffffffffffffffffffffffffffffffffffff164760405161113890612344565b60006040518083038185875af1925050503d8060008114611175576040519150601f19603f3d011682016040523d82523d6000602084013e61117a565b606091505b50509050806111be576040517f08c379a00000000000000000000000000000000000000000000000000000000081526004016111b5906123a5565b60405180910390fd5b505b60008111156112785760008054906101000a900473ffffffffffffffffffffffffffffffffffffffff1673ffffffffffffffffffffffffffffffffffffffff1663a9059cbb33836040518363ffffffff1660e01b8152600401611224929190612196565b602060405180830381600087803b15801561123e57600080fd5b505af1158015611252573d6000803e3d6000fd5b505050506040513d601f19601f8201168201806040525081019061127691906121f7565b505b505050565b3361128661144a565b6008819055504260078190555061129c816114ae565b600a60008373ffffffffffffffffffffffffffffffffffffffff1673ffffffffffffffffffffffffffffffffffffffff16815260200190815260200160002081905550600854600960008373ffffffffffffffffffffffffffffffffffffffff1673ffffffffffffffffffffffffffffffffffffffff1681526020019081526020016000208190555081600b600082825461133791906123c5565b9250508190555081600c60003373ffffffffffffffffffffffffffffffffffffffff1673ffffffffffffffffffffffffffffffffffffffff168152602001908152602001600020600082825461138d91906123c5565b92505081905550600560009054906101000a900473ffffffffffffffffffffffffffffffffffffffff1673ffffffffffffffffffffffffffffffffffffffff166323b872dd3330856040518463ffffffff1660e01b81526004016113f39392919061241b565b602060405180830381600087803b15801561140d57600080fd5b505af1158015611421573d6000803e3d6000fd5b505050506040513d601f19601f8201168201806040525081019061144591906121f7565b505050565b600080600b5414156114605760085490506114ab565b600b54670de0b6b3a76400006006546007544261147d9190612162565b6114879190612452565b6114919190612452565b61149b91906124db565b6008546114a891906123c5565b90505b90565b6000600a60008373ffffffffffffffffffffffffffffffffffffffff1673ffffffffffffffffffffffffffffffffffffffff16815260200190815260200160002054670de0b6b3a7640000600960008573ffffffffffffffffffffffffffffffffffffffff1673ffffffffffffffffffffffffffffffffffffffff1681526020019081526020016000205461154161144a565b61154b9190612162565b600c60008673ffffffffffffffffffffffffffffffffffffffff1673ffffffffffffffffffffffffffffffffffffffff168152602001908152602001600020546115959190612452565b61159f91906124db565b6115a991906123c5565b9050919050565b6000806000600360009054906101000a900473ffffffffffffffffffffffffffffffffffffffff1673ffffffffffffffffffffffffffffffffffffffff1663e6a43905600160009054906101000a900473ffffffffffffffffffffffffffffffffffffffff1660008054906101000a900473ffffffffffffffffffffffffffffffffffffffff166040518363ffffffff1660e01b815260040161165492919061250c565b60206040518083038186803b15801561166c57600080fd5b505afa158015611680573d6000803e3d6000fd5b505050506040513d601f19601f820116820180604052508101906116a4919061254a565b90506000808273ffffffffffffffffffffffffffffffffffffffff16630902f1ac6040518163ffffffff1660e01b815260040160606040518083038186803b1580156116ef57600080fd5b505afa158015611703573d6000803e3d6000fd5b505050506040513d601f19601f8201168201806040525081019061172791906125f9565b506dffffffffffffffffffffffffffff1691506dffffffffffffffffffffffffffff169150600160009054906101000a900473ffffffffffffffffffffffffffffffffffffffff1673ffffffffffffffffffffffffffffffffffffffff168373ffffffffffffffffffffffffffffffffffffffff16630dfe16816040518163ffffffff1660e01b815260040160206040518083038186803b1580156117cb57600080fd5b505afa1580156117df573d6000803e3d6000fd5b505050506040513d601f19601f82011682018060405250810190611803919061254a565b73ffffffffffffffffffffffffffffffffffffffff161415611830576118298287611a82565b935061183d565b61183a8187611a82565b93505b83945050505050919050565b6000600267ffffffffffffffff8111156118665761186561264c565b5b6040519080825280602002602001820160405280156118945781602001602082028036833780820191505090505b509050600267ffffffffffffffff8111156118b2576118b161264c565b5b6040519080825280602002602001820160405280156118e05781602001602082028036833780820191505090505b509050600160009054906101000a900473ffffffffffffffffffffffffffffffffffffffff168160008151811061191a5761191961267b565b5b602002602001019073ffffffffffffffffffffffffffffffffffffffff16908173ffffffffffffffffffffffffffffffffffffffff168152505060008054906101000a900473ffffffffffffffffffffffffffffffffffffffff16816001815181106119895761198861267b565b5b602002602001019073ffffffffffffffffffffffffffffffffffffffff16908173ffffffffffffffffffffffffffffffffffffffff1681525050600260009054906101000a900473ffffffffffffffffffffffffffffffffffffffff1673ffffffffffffffffffffffffffffffffffffffff16637ff36ab58360018430426040518663ffffffff1660e01b8152600401611a2694939291906127a3565b6000604051808303818588803b158015611a3f57600080fd5b505af1158015611a53573d6000803e3d6000fd5b50505050506040513d6000823e3d601f19601f82011682018060405250810190611a7d9190612919565b505050565b60006107ca611afd611a9f6107cd86611b0f90919063ffffffff16565b611aef611aea611abb623cda2088611b0f90919063ffffffff16565b611ad1623cda298a611b0f90919063ffffffff16565b611adb91906123c5565b88611b0f90919063ffffffff16565b611b25565b611b9f90919063ffffffff16565b611b0791906124db565b905092915050565b60008183611b1d9190612452565b905092915050565b60006003821115611b8c5781905060006001600284611b4491906124db565b611b4e91906123c5565b90505b81811015611b86578091506002818285611b6b91906124db565b611b7591906123c5565b611b7f91906124db565b9050611b51565b50611b9a565b60008214611b9957600190505b5b919050565b60008183611bad9190612162565b905092915050565b6000604051905090565b600080fd5b600080fd5b600073ffffffffffffffffffffffffffffffffffffffff82169050919050565b6000611bf482611bc9565b9050919050565b611c0481611be9565b8114611c0f57600080fd5b50565b600081359050611c2181611bfb565b92915050565b600060208284031215611c3d57611c3c611bbf565b5b6000611c4b84828501611c12565b91505092915050565b6000819050919050565b611c6781611c54565b82525050565b6000602082019050611c826000830184611c5e565b92915050565b6000819050919050565b6000611cad611ca8611ca384611bc9565b611c88565b611bc9565b9050919050565b6000611cbf82611c92565b9050919050565b6000611cd182611cb4565b9050919050565b611ce181611cc6565b82525050565b6000602082019050611cfc6000830184611cd8565b92915050565b60028110611d0f57600080fd5b50565b600081359050611d2181611d02565b92915050565b600080600060608486031215611d4057611d3f611bbf565b5b6000611d4e86828701611c12565b9350506020611d5f86828701611c12565b9250506040611d7086828701611d12565b9150509250925092565b600060ff82169050919050565b611d9081611d7a565b8114611d9b57600080fd5b50565b600081359050611dad81611d87565b92915050565b6000819050919050565b611dc681611db3565b8114611dd157600080fd5b50565b600081359050611de381611dbd565b92915050565b611df281611c54565b8114611dfd57600080fd5b50565b600081359050611e0f81611de9565b92915050565b600080600080600060a08688031215611e3157611e30611bbf565b5b6000611e3f88828901611d9e565b9550506020611e5088828901611dd4565b9450506040611e6188828901611dd4565b9350506060611e7288828901611e00565b9250506080611e8388828901611e00565b9150509295509295909350565b600082825260208201905092915050565b7f446f6e27742068617665206d6f6e657920746f20776974686472617700000000600082015250565b6000611ed7601c83611e90565b9150611ee282611ea1565b602082019050919050565b60006020820190508181036000830152611f0681611eca565b9050919050565b7f436f6e74726163742061726520696e697469616c697a65640000000000000000600082015250565b6000611f43601883611e90565b9150611f4e82611f0d565b602082019050919050565b60006020820190508181036000830152611f7281611f36565b9050919050565b7f4e487b7100000000000000000000000000000000000000000000000000000000600052602160045260246000fd5b7f4e65656420656e6f756768206d6f6e657920746f20616464206c69717569646960008201527f7479000000000000000000000000000000000000000000000000000000000000602082015250565b6000612004602283611e90565b915061200f82611fa8565b604082019050919050565b6000602082019050818103600083015261203381611ff7565b9050919050565b61204381611be9565b82525050565b61205281611d7a565b82525050565b61206181611db3565b82525050565b600060e08201905061207c600083018a61203a565b612089602083018961203a565b6120966040830188611c5e565b6120a36060830187611c5e565b6120b06080830186612049565b6120bd60a0830185612058565b6120ca60c0830184612058565b98975050505050505050565b60006020820190506120eb600083018461203a565b92915050565b60008151905061210081611de9565b92915050565b60006020828403121561211c5761211b611bbf565b5b600061212a848285016120f1565b91505092915050565b7f4e487b7100000000000000000000000000000000000000000000000000000000600052601160045260246000fd5b600061216d82611c54565b915061217883611c54565b92508282101561218b5761218a612133565b5b828203905092915050565b60006040820190506121ab600083018561203a565b6121b86020830184611c5e565b9392505050565b60008115159050919050565b6121d4816121bf565b81146121df57600080fd5b50565b6000815190506121f1816121cb565b92915050565b60006020828403121561220d5761220c611bbf565b5b600061221b848285016121e2565b91505092915050565b6000819050919050565b600061224961224461223f84612224565b611c88565b611c54565b9050919050565b6122598161222e565b82525050565b600060c082019050612274600083018961203a565b6122816020830188611c5e565b61228e6040830187612250565b61229b6060830186612250565b6122a8608083018561203a565b6122b560a0830184611c5e565b979650505050505050565b6000806000606084860312156122d9576122d8611bbf565b5b60006122e7868287016120f1565b93505060206122f8868287016120f1565b9250506040612309868287016120f1565b9150509250925092565b600081905092915050565b50565b600061232e600083612313565b91506123398261231e565b600082019050919050565b600061234f82612321565b9150819050919050565b7f726566756e64206661696c656400000000000000000000000000000000000000600082015250565b600061238f600d83611e90565b915061239a82612359565b602082019050919050565b600060208201905081810360008301526123be81612382565b9050919050565b60006123d082611c54565b91506123db83611c54565b9250827fffffffffffffffffffffffffffffffffffffffffffffffffffffffffffffffff038211156124105761240f612133565b5b828201905092915050565b6000606082019050612430600083018661203a565b61243d602083018561203a565b61244a6040830184611c5e565b949350505050565b600061245d82611c54565b915061246883611c54565b9250817fffffffffffffffffffffffffffffffffffffffffffffffffffffffffffffffff04831182151516156124a1576124a0612133565b5b828202905092915050565b7f4e487b7100000000000000000000000000000000000000000000000000000000600052601260045260246000fd5b60006124e682611c54565b91506124f183611c54565b925082612501576125006124ac565b5b828204905092915050565b6000604082019050612521600083018561203a565b61252e602083018461203a565b9392505050565b60008151905061254481611bfb565b92915050565b6000602082840312156125605761255f611bbf565b5b600061256e84828501612535565b91505092915050565b60006dffffffffffffffffffffffffffff82169050919050565b61259a81612577565b81146125a557600080fd5b50565b6000815190506125b781612591565b92915050565b600063ffffffff82169050919050565b6125d6816125bd565b81146125e157600080fd5b50565b6000815190506125f3816125cd565b92915050565b60008060006060848603121561261257612611611bbf565b5b6000612620868287016125a8565b9350506020612631868287016125a8565b9250506040612642868287016125e4565b9150509250925092565b7f4e487b7100000000000000000000000000000000000000000000000000000000600052604160045260246000fd5b7f4e487b7100000000000000000000000000000000000000000000000000000000600052603260045260246000fd5b6000819050919050565b60006126cf6126ca6126c5846126aa565b611c88565b611c54565b9050919050565b6126df816126b4565b82525050565b600081519050919050565b600082825260208201905092915050565b6000819050602082019050919050565b61271a81611be9565b82525050565b600061272c8383612711565b60208301905092915050565b6000602082019050919050565b6000612750826126e5565b61275a81856126f0565b935061276583612701565b8060005b8381101561279657815161277d8882612720565b975061278883612738565b925050600181019050612769565b5085935050505092915050565b60006080820190506127b860008301876126d6565b81810360208301526127ca8186612745565b90506127d9604083018561203a565b6127e66060830184611c5e565b95945050505050565b600080fd5b6000601f19601f8301169050919050565b61280e826127f4565b810181811067ffffffffffffffff8211171561282d5761282c61264c565b5b80604052505050565b6000612840611bb5565b905061284c8282612805565b919050565b600067ffffffffffffffff82111561286c5761286b61264c565b5b602082029050602081019050919050565b600080fd5b600061289561289084612851565b612836565b905080838252602082019050602084028301858111156128b8576128b761287d565b5b835b818110156128e157806128cd88826120f1565b8452602084019350506020810190506128ba565b5050509392505050565b600082601f830112612900576128ff6127ef565b5b8151612910848260208601612882565b91505092915050565b60006020828403121561292f5761292e611bbf565b5b600082015167ffffffffffffffff81111561294d5761294c611bc4565b5b612959848285016128eb565b9150509291505056fea26469706673582212208da6b755690ae6a303136d1d6adc4461e5f5aef5249721445ea78194e003029964736f6c63430008080033",
  "devdoc": {
    "kind": "dev",
    "methods": {
      "addPoolLiquidity(uint8,bytes32,bytes32,uint256,uint256)": {
        "details": "This function add liquidity in the pool ",
        "params": {
          "deadline": "Transaction limit time ",
          "r": "Component of an ECDSA digital signature",
          "s": "Component of an ECDSA digital signature",
          "v": "Component of an ECDSA digital signature",
          "valueForPermit": "Value to permit "
        }
      },
      "initialize(address,address,uint8)": {
        "params": {
          "_netWork": "Blockchain Number ",
          "_rewardsToken": "address of the rewards token",
          "_stakingToken": "address of the staking token"
        }
      },
      "withdrawPoolLiquidity()": {
        "details": "Withdraw the total balance of the user "
      }
    },
    "version": 1
  },
  "userdoc": {
    "kind": "user",
    "methods": {},
    "version": 1
  },
  "storageLayout": {
    "storage": [
      {
        "astId": 2269,
        "contract": "contracts/LPStakingMain.sol:LPStakingMain",
        "label": "dai",
        "offset": 0,
        "slot": "0",
        "type": "t_address"
      },
      {
        "astId": 2271,
        "contract": "contracts/LPStakingMain.sol:LPStakingMain",
        "label": "weth",
        "offset": 0,
        "slot": "1",
        "type": "t_address"
      },
      {
        "astId": 2274,
        "contract": "contracts/LPStakingMain.sol:LPStakingMain",
        "label": "routerV2",
        "offset": 0,
        "slot": "2",
        "type": "t_contract(IUniswapV2Router)2104"
      },
      {
        "astId": 2277,
        "contract": "contracts/LPStakingMain.sol:LPStakingMain",
        "label": "factoryV2",
        "offset": 0,
        "slot": "3",
        "type": "t_contract(IUniswapV2Factory)1922"
      },
      {
        "astId": 2643,
        "contract": "contracts/LPStakingMain.sol:LPStakingMain",
        "label": "rewardsToken",
        "offset": 0,
        "slot": "4",
        "type": "t_contract(IERC20)770"
      },
      {
        "astId": 2646,
        "contract": "contracts/LPStakingMain.sol:LPStakingMain",
        "label": "stakingToken",
        "offset": 0,
        "slot": "5",
        "type": "t_contract(IERC20)770"
      },
      {
        "astId": 2648,
        "contract": "contracts/LPStakingMain.sol:LPStakingMain",
        "label": "rewardRate",
        "offset": 0,
        "slot": "6",
        "type": "t_uint256"
      },
      {
        "astId": 2650,
        "contract": "contracts/LPStakingMain.sol:LPStakingMain",
        "label": "lastUpdateTime",
        "offset": 0,
        "slot": "7",
        "type": "t_uint256"
      },
      {
        "astId": 2652,
        "contract": "contracts/LPStakingMain.sol:LPStakingMain",
        "label": "rewardPerTokenStored",
        "offset": 0,
        "slot": "8",
        "type": "t_uint256"
      },
      {
        "astId": 2656,
        "contract": "contracts/LPStakingMain.sol:LPStakingMain",
        "label": "userRewardPerTokenPaid",
        "offset": 0,
        "slot": "9",
        "type": "t_mapping(t_address,t_uint256)"
      },
      {
        "astId": 2660,
        "contract": "contracts/LPStakingMain.sol:LPStakingMain",
        "label": "rewards",
        "offset": 0,
        "slot": "10",
        "type": "t_mapping(t_address,t_uint256)"
      },
      {
        "astId": 2662,
        "contract": "contracts/LPStakingMain.sol:LPStakingMain",
        "label": "_totalSupply",
        "offset": 0,
        "slot": "11",
        "type": "t_uint256"
      },
      {
        "astId": 2666,
        "contract": "contracts/LPStakingMain.sol:LPStakingMain",
        "label": "balances",
        "offset": 0,
        "slot": "12",
        "type": "t_mapping(t_address,t_uint256)"
      },
      {
        "astId": 2116,
        "contract": "contracts/LPStakingMain.sol:LPStakingMain",
        "label": "init",
        "offset": 0,
        "slot": "13",
        "type": "t_bool"
      },
      {
        "astId": 2119,
        "contract": "contracts/LPStakingMain.sol:LPStakingMain",
        "label": "ETHDAIpool",
        "offset": 1,
        "slot": "13",
        "type": "t_contract(IUniswapV2ERC20)1910"
      }
    ],
    "types": {
      "t_address": {
        "encoding": "inplace",
        "label": "address",
        "numberOfBytes": "20"
      },
      "t_bool": {
        "encoding": "inplace",
        "label": "bool",
        "numberOfBytes": "1"
      },
      "t_contract(IERC20)770": {
        "encoding": "inplace",
        "label": "contract IERC20",
        "numberOfBytes": "20"
      },
      "t_contract(IUniswapV2ERC20)1910": {
        "encoding": "inplace",
        "label": "contract IUniswapV2ERC20",
        "numberOfBytes": "20"
      },
      "t_contract(IUniswapV2Factory)1922": {
        "encoding": "inplace",
        "label": "contract IUniswapV2Factory",
        "numberOfBytes": "20"
      },
      "t_contract(IUniswapV2Router)2104": {
        "encoding": "inplace",
        "label": "contract IUniswapV2Router",
        "numberOfBytes": "20"
      },
      "t_mapping(t_address,t_uint256)": {
        "encoding": "mapping",
        "key": "t_address",
        "label": "mapping(address => uint256)",
        "numberOfBytes": "32",
        "value": "t_uint256"
      },
      "t_uint256": {
        "encoding": "inplace",
        "label": "uint256",
        "numberOfBytes": "32"
      }
    }
  }
}